{
  "abi": [
    {
      "type": "constructor",
      "inputs": [
        {
          "name": "_weth",
          "type": "address",
          "internalType": "address"
        },
        {
          "name": "_admin",
          "type": "address",
          "internalType": "address"
        },
        {
          "name": "_fee",
          "type": "uint16",
          "internalType": "uint16"
        }
      ],
      "stateMutability": "nonpayable"
    },
    {
      "type": "function",
      "name": "FEE_PRECISION",
      "inputs": [],
      "outputs": [
        {
          "name": "",
          "type": "uint16",
          "internalType": "uint16"
        }
      ],
      "stateMutability": "view"
    },
    {
      "type": "function",
      "name": "MAX_MILESTONES",
      "inputs": [],
      "outputs": [
        {
          "name": "",
          "type": "uint8",
          "internalType": "uint8"
        }
      ],
      "stateMutability": "view"
    },
    {
      "type": "function",
      "name": "admin",
      "inputs": [],
      "outputs": [
        {
          "name": "",
          "type": "address",
          "internalType": "address"
        }
      ],
      "stateMutability": "view"
    },
    {
      "type": "function",
      "name": "collectFundsFromMilestone",
      "inputs": [
        {
          "name": "_client",
          "type": "address",
          "internalType": "address"
        },
        {
          "name": "_jobCount",
          "type": "uint256",
          "internalType": "uint256"
        }
      ],
      "outputs": [],
      "stateMutability": "nonpayable"
    },
    {
      "type": "function",
      "name": "createJob",
      "inputs": [
        {
          "name": "_supplier",
          "type": "address",
          "internalType": "address"
        },
        {
          "name": "_paymentToken",
          "type": "address",
          "internalType": "address"
        },
        {
          "name": "_numMilestones",
          "type": "uint8",
          "internalType": "uint8"
        },
        {
          "name": "_milestoneFunds",
          "type": "uint256[10]",
          "internalType": "uint256[10]"
        }
      ],
      "outputs": [
        {
          "name": "",
          "type": "bytes32",
          "internalType": "bytes32"
        }
      ],
      "stateMutability": "payable"
    },
    {
      "type": "function",
      "name": "fee",
      "inputs": [],
      "outputs": [
        {
          "name": "",
          "type": "uint16",
          "internalType": "uint16"
        }
      ],
      "stateMutability": "view"
    },
    {
      "type": "function",
      "name": "fundMilestone",
      "inputs": [
        {
          "name": "_supplier",
          "type": "address",
          "internalType": "address"
        },
        {
          "name": "_jobCount",
          "type": "uint256",
          "internalType": "uint256"
        }
      ],
      "outputs": [],
      "stateMutability": "payable"
    },
    {
      "type": "function",
      "name": "getJobDetails",
      "inputs": [
        {
          "name": "_jobHash",
          "type": "bytes32",
          "internalType": "bytes32"
        }
      ],
      "outputs": [
        {
          "name": "",
          "type": "tuple",
          "internalType": "struct Escrowed.Job",
          "components": [
            {
              "name": "client",
              "type": "address",
              "internalType": "address"
            },
            {
              "name": "supplier",
              "type": "address",
              "internalType": "address"
            },
            {
              "name": "paymentToken",
              "type": "address",
              "internalType": "address"
            },
            {
              "name": "numMilestones",
              "type": "uint8",
              "internalType": "uint8"
            },
            {
              "name": "milestoneFunds",
              "type": "uint256[10]",
              "internalType": "uint256[10]"
            },
            {
              "name": "currentMilestone",
              "type": "uint8",
              "internalType": "uint8"
            },
            {
              "name": "currentMilestoneFunded",
              "type": "bool",
              "internalType": "bool"
            },
            {
              "name": "currentMilestoneCompletedVotes",
              "type": "bool[2]",
              "internalType": "bool[2]"
            }
          ]
        }
      ],
      "stateMutability": "view"
    },
    {
      "type": "function",
      "name": "jobCount",
      "inputs": [],
      "outputs": [
        {
          "name": "",
          "type": "uint256",
          "internalType": "uint256"
        }
      ],
      "stateMutability": "view"
    },
    {
      "type": "function",
      "name": "jobs",
      "inputs": [
        {
          "name": "jobHash",
          "type": "bytes32",
          "internalType": "bytes32"
        }
      ],
      "outputs": [
        {
          "name": "client",
          "type": "address",
          "internalType": "address"
        },
        {
          "name": "supplier",
          "type": "address",
          "internalType": "address"
        },
        {
          "name": "paymentToken",
          "type": "address",
          "internalType": "address"
        },
        {
          "name": "numMilestones",
          "type": "uint8",
          "internalType": "uint8"
        },
        {
          "name": "currentMilestone",
          "type": "uint8",
          "internalType": "uint8"
        },
        {
          "name": "currentMilestoneFunded",
          "type": "bool",
          "internalType": "bool"
        }
      ],
      "stateMutability": "view"
    },
    {
      "type": "function",
      "name": "markMilestoneAsDoneByClient",
      "inputs": [
        {
          "name": "_supplier",
          "type": "address",
          "internalType": "address"
        },
        {
          "name": "_jobCount",
          "type": "uint256",
          "internalType": "uint256"
        }
      ],
      "outputs": [],
      "stateMutability": "nonpayable"
    },
    {
      "type": "function",
      "name": "markMilestoneAsDoneBySupplier",
      "inputs": [
        {
          "name": "_client",
          "type": "address",
          "internalType": "address"
        },
        {
          "name": "_jobCount",
          "type": "uint256",
          "internalType": "uint256"
        }
      ],
      "outputs": [],
      "stateMutability": "nonpayable"
    },
    {
      "type": "function",
      "name": "resolveConflict",
      "inputs": [
        {
          "name": "_client",
          "type": "address",
          "internalType": "address"
        },
        {
          "name": "_supplier",
          "type": "address",
          "internalType": "address"
        },
        {
          "name": "_jobCount",
          "type": "uint256",
          "internalType": "uint256"
        },
        {
          "name": "_achieved",
          "type": "bool",
          "internalType": "bool"
        }
      ],
      "outputs": [],
      "stateMutability": "nonpayable"
    },
    {
      "type": "function",
      "name": "weth",
      "inputs": [],
      "outputs": [
        {
          "name": "",
          "type": "address",
          "internalType": "address"
        }
      ],
      "stateMutability": "view"
    },
    {
      "type": "event",
      "name": "FundsCollectedFromMilestone",
      "inputs": [
        {
          "name": "jobHash",
          "type": "bytes32",
          "indexed": false,
          "internalType": "bytes32"
        },
        {
          "name": "currentMilestone",
          "type": "uint8",
          "indexed": false,
          "internalType": "uint8"
        },
        {
          "name": "milestoneFundAmount",
          "type": "uint256",
          "indexed": false,
          "internalType": "uint256"
        }
      ],
      "anonymous": false
    },
    {
      "type": "event",
      "name": "JobCreated",
      "inputs": [
        {
          "name": "_job",
          "type": "tuple",
          "indexed": true,
          "internalType": "struct Escrowed.Job",
          "components": [
            {
              "name": "client",
              "type": "address",
              "internalType": "address"
            },
            {
              "name": "supplier",
              "type": "address",
              "internalType": "address"
            },
            {
              "name": "paymentToken",
              "type": "address",
              "internalType": "address"
            },
            {
              "name": "numMilestones",
              "type": "uint8",
              "internalType": "uint8"
            },
            {
              "name": "milestoneFunds",
              "type": "uint256[10]",
              "internalType": "uint256[10]"
            },
            {
              "name": "currentMilestone",
              "type": "uint8",
              "internalType": "uint8"
            },
            {
              "name": "currentMilestoneFunded",
              "type": "bool",
              "internalType": "bool"
            },
            {
              "name": "currentMilestoneCompletedVotes",
              "type": "bool[2]",
              "internalType": "bool[2]"
            }
          ]
        },
        {
          "name": "jobCount",
          "type": "uint256",
          "indexed": true,
          "internalType": "uint256"
        }
      ],
      "anonymous": false
    },
    {
      "type": "event",
      "name": "MilestoneFunded",
      "inputs": [
        {
          "name": "jobHash",
          "type": "bytes32",
          "indexed": false,
          "internalType": "bytes32"
        },
        {
          "name": "currentMilestone",
          "type": "uint8",
          "indexed": false,
          "internalType": "uint8"
        },
        {
          "name": "milestoneFundAmount",
          "type": "uint256",
          "indexed": false,
          "internalType": "uint256"
        }
      ],
      "anonymous": false
    },
    {
      "type": "event",
      "name": "MilestoneMarkedAsDoneByClient",
      "inputs": [
        {
          "name": "jobHash",
          "type": "bytes32",
          "indexed": false,
          "internalType": "bytes32"
        },
        {
          "name": "currentMilestone",
          "type": "uint8",
          "indexed": false,
          "internalType": "uint8"
        }
      ],
      "anonymous": false
    },
    {
      "type": "event",
      "name": "MilestoneMarkedAsDoneByDev",
      "inputs": [
        {
          "name": "jobHash",
          "type": "bytes32",
          "indexed": false,
          "internalType": "bytes32"
        },
        {
          "name": "currentMilestone",
          "type": "uint8",
          "indexed": false,
          "internalType": "uint8"
        }
      ],
      "anonymous": false
    },
    {
      "type": "event",
      "name": "ResolvedConflict",
      "inputs": [
        {
          "name": "jobHash",
          "type": "bytes32",
          "indexed": false,
          "internalType": "bytes32"
        },
        {
          "name": "achieved",
          "type": "bool",
          "indexed": false,
          "internalType": "bool"
        }
      ],
      "anonymous": false
    },
    {
      "type": "error",
      "name": "AddressEmptyCode",
      "inputs": [
        {
          "name": "target",
          "type": "address",
          "internalType": "address"
        }
      ]
    },
    {
      "type": "error",
      "name": "AddressInsufficientBalance",
      "inputs": [
        {
          "name": "account",
          "type": "address",
          "internalType": "address"
        }
      ]
    },
    {
      "type": "error",
      "name": "Escrowed__AddressZero",
      "inputs": []
    },
    {
      "type": "error",
      "name": "Escrowed__CurrentMilestoneFunded",
      "inputs": [
        {
          "name": "jobHash",
          "type": "bytes32",
          "internalType": "bytes32"
        },
        {
          "name": "currentMilestone",
          "type": "uint8",
          "internalType": "uint8"
        }
      ]
    },
    {
      "type": "error",
      "name": "Escrowed__InvalidFeeValue",
      "inputs": []
    },
    {
      "type": "error",
      "name": "Escrowed__InvalidJobConfig",
      "inputs": []
    },
    {
      "type": "error",
      "name": "Escrowed__JobDoesNotExist",
      "inputs": [
        {
          "name": "jobHash",
          "type": "bytes32",
          "internalType": "bytes32"
        }
      ]
    },
    {
      "type": "error",
      "name": "Escrowed__JobEnded",
      "inputs": [
        {
          "name": "jobHash",
          "type": "bytes32",
          "internalType": "bytes32"
        }
      ]
    },
    {
      "type": "error",
      "name": "Escrowed__MilestoneNotAchievedYet",
      "inputs": [
        {
          "name": "jobHash",
          "type": "bytes32",
          "internalType": "bytes32"
        },
        {
          "name": "milestone",
          "type": "uint8",
          "internalType": "uint8"
        }
      ]
    },
    {
      "type": "error",
      "name": "Escrowed__NotAdmin",
      "inputs": [
        {
          "name": "user",
          "type": "address",
          "internalType": "address"
        },
        {
          "name": "admin",
          "type": "address",
          "internalType": "address"
        }
      ]
    },
    {
      "type": "error",
      "name": "Escrowed__NotJobCreator",
      "inputs": [
        {
          "name": "user",
          "type": "address",
          "internalType": "address"
        },
        {
          "name": "jobCreator",
          "type": "address",
          "internalType": "address"
        }
      ]
    },
    {
      "type": "error",
      "name": "Escrowed__NotSupplierforJob",
      "inputs": [
        {
          "name": "jobHash",
          "type": "bytes32",
          "internalType": "bytes32"
        },
        {
          "name": "user",
          "type": "address",
          "internalType": "address"
        },
        {
          "name": "supplier",
          "type": "address",
          "internalType": "address"
        }
      ]
    },
    {
      "type": "error",
      "name": "Escrowed__TransferFailed",
      "inputs": []
    },
    {
      "type": "error",
      "name": "Escrowed__ZeroValue",
      "inputs": []
    },
    {
      "type": "error",
      "name": "FailedInnerCall",
      "inputs": []
    },
    {
      "type": "error",
      "name": "SafeERC20FailedOperation",
      "inputs": [
        {
          "name": "token",
          "type": "address",
          "internalType": "address"
        }
      ]
    }
  ],
  "bytecode": {
    "object": "0x60806040523480156200001157600080fd5b5060405162001f0238038062001f0283398101604081905262000034916200011b565b826001600160a01b0381166200005d5760405163cdf9642b60e01b815260040160405180910390fd5b826001600160a01b038116620000865760405163cdf9642b60e01b815260040160405180910390fd5b61271061ffff84161115620000ae57604051630c0a4a9b60e31b815260040160405180910390fd5b5050600080546001600160a01b039485166001600160a01b03199091161790556001805461ffff909216600160a01b026001600160b01b031990921692909316919091171781556002556200016f565b80516001600160a01b03811681146200011657600080fd5b919050565b6000806000606084860312156200013157600080fd5b6200013c84620000fe565b92506200014c60208501620000fe565b9150604084015161ffff811681146200016457600080fd5b809150509250925092565b611d83806200017f6000396000f3fe6080604052600436106100dd5760003560e01c8063b96cb8201161007f578063ddca3f4311610059578063ddca3f43146102d0578063e1cccbaa14610305578063e63a391f14610325578063f851a4401461033b57600080fd5b8063b96cb82014610270578063cae654cd14610290578063d4b136aa146102b057600080fd5b80633fc8cef3116100bb5780633fc8cef3146101e65780634aad89201461021e5780634c05abeb146102335780634c5d8a0f1461025a57600080fd5b806311a33bda146100e25780632c66c9551461011857806338ed7cfc14610139575b600080fd5b3480156100ee57600080fd5b506101026100fd366004611948565b61035b565b60405161010f91906119a9565b60405180910390f35b61012b610126366004611a50565b61046f565b60405190815260200161010f565b34801561014557600080fd5b506101a2610154366004611948565b6003602052600090815260409020805460018201546002830154600d909301546001600160a01b03928316939183169282169160ff600160a01b909104811691808216916101009091041686565b604080516001600160a01b0397881681529587166020870152939095169284019290925260ff908116606084015216608082015290151560a082015260c00161010f565b3480156101f257600080fd5b50600054610206906001600160a01b031681565b6040516001600160a01b03909116815260200161010f565b61023161022c366004611ab4565b610759565b005b34801561023f57600080fd5b50610248600a81565b60405160ff909116815260200161010f565b34801561026657600080fd5b5061012b60025481565b34801561027c57600080fd5b5061023161028b366004611ab4565b610b1c565b34801561029c57600080fd5b506102316102ab366004611aec565b610d2e565b3480156102bc57600080fd5b506102316102cb366004611ab4565b61100d565b3480156102dc57600080fd5b506001546102f290600160a01b900461ffff1681565b60405161ffff909116815260200161010f565b34801561031157600080fd5b50610231610320366004611ab4565b61121d565b34801561033157600080fd5b506102f261271081565b34801561034757600080fd5b50600154610206906001600160a01b031681565b6103636117da565b60008281526003602081815260409283902083516101008101855281546001600160a01b0390811682526001830154811693820193909352600282015492831681860152600160a01b90920460ff16606083015283516101408101948590529193909260808501929190840190600a9082845b8154815260200190600101908083116103d6575050509183525050600d82015460ff808216602084015261010090910416151560408083019190915280518082019182905260609092019190600e840190600290826000855b825461010083900a900460ff16151581526020600192830181810494850194909303909202910180841161042f5790505050505050815250509050919050565b6000846001600160a01b0381166104995760405163cdf9642b60e01b815260040160405180910390fd5b846001600160a01b0381166104c15760405163cdf9642b60e01b815260040160405180910390fd5b8460ff16806000036104e6576040516372357e6560e01b815260040160405180910390fd5b600a60ff8716111561050b576040516314aeeac560e11b815260040160405180910390fd5b60005b8660ff168160ff16101561055e57858160ff16600a811061053157610531611b3b565b6020020135600003610556576040516314aeeac560e11b815260040160405180910390fd5b60010161050e565b5060408051610100810182523381526001600160a01b038a8116602083015289168183015260ff8816606082015281516101408181019093526000926080830191908990600a908390839080828437600092018290525092845250506020808301829052604080840183905280518082018252838152808301849052606090940193909352835184820151600254945195965092946106009491939201611b51565b60408051601f1981840301815291815281516020928301206000818152600380855290839020865181546001600160a01b039182166001600160a01b031991821617835595880151600183018054918316919097161790955592860151600284018054606089015160ff16600160a01b026001600160a81b0319909116929096169190911794909417909355608085015190935084926106a59190830190600a61182b565b5060a0820151600d8201805460c085015115156101000261ffff1990911660ff9093169290921791909117905560e08201516106e790600e8301906002611869565b505060028054915060006106fa83611b8b565b9190505550600160025461070e9190611ba4565b8260405161071c9190611bed565b604051908190038120907f9e9afbcf2c3c58a0245a24a978510cca7fadd21659a099ca2364a7d61c3d2ace90600090a39998505050505050505050565b816001600160a01b0381166107815760405163cdf9642b60e01b815260040160405180910390fd5b81806000036107a3576040516372357e6560e01b815260040160405180910390fd5b60003385856040516020016107ba93929190611b51565b60408051808303601f190181528282528051602091820120600081815260038084528482206101008701865280546001600160a01b0390811688526001820154811695880195909552600281015494851687870152600160a01b90940460ff1660608701528451610140810195869052929650909493608085019291840190600a9082845b81548152602001906001019080831161083f575050509183525050600d82015460ff808216602084015261010090910416151560408083019190915280518082019182905260609092019190600e840190600290826000855b825461010083900a900460ff1615158152602060019283018181049485019490930390920291018084116108985790505050509190925250508151919250506001600160a01b0316610905576040516312e5007360e21b8152600481018390526024015b60405180910390fd5b806060015160ff168160a0015160ff160361093657604051636faa7d5960e11b8152600481018390526024016108fc565b8060c001511561096b5760a0810151604051638f071f0960e01b81526004810184905260ff90911660248201526044016108fc565b6000828152600360205260408120600d01805461ff001916610100179055608082015160a083015160ff16600a81106109a6576109a6611b3b565b602002015160005460408401519192506001600160a01b0391821691161480156109cf57508034145b15610a405760008054906101000a90046001600160a01b03166001600160a01b031663d0e30db0826040518263ffffffff1660e01b81526004016000604051808303818588803b158015610a2257600080fd5b505af1158015610a36573d6000803e3d6000fd5b5050505050610a5a565b6040820151610a5a906001600160a01b03163330846115a3565b4715610acb57604051600090339047908381818185875af1925050503d8060008114610aa2576040519150601f19603f3d011682016040523d82523d6000602084013e610aa7565b606091505b5050905080610ac9576040516303ee4af560e11b815260040160405180910390fd5b505b60a08201516040805185815260ff909216602083015281018290527f32b1ea4c91ea7aa64ddac34d1ce8d0acfef93a578187e79735218e1f1ed6aa079060600160405180910390a150505050505050565b816001600160a01b038116610b445760405163cdf9642b60e01b815260040160405180910390fd5b8180600003610b66576040516372357e6560e01b815260040160405180910390fd5b6000338585604051602001610b7d93929190611b51565b60408051808303601f190181528282528051602091820120600081815260038084528482206101008701865280546001600160a01b0390811688526001820154811695880195909552600281015494851687870152600160a01b90940460ff1660608701528451610140810195869052929650909493608085019291840190600a9082845b815481526020019060010190808311610c02575050509183525050600d82015460ff808216602084015261010090910416151560408083019190915280518082019182905260609092019190600e840190600290826000855b825461010083900a900460ff161515815260206001928301818104948501949093039092029101808411610c5b5790505050509190925250508151919250506001600160a01b0316610cc3576040516312e5007360e21b8152600481018390526024016108fc565b600082815260036020908152604091829020600e01805460ff1916600117905560a0830151825185815260ff91909116918101919091527f6d498ff26c7a60bf8d7524adbcdaeefdbe5160d241ec390b19ce3b5b23324b3491015b60405180910390a1505050505050565b836001600160a01b038116610d565760405163cdf9642b60e01b815260040160405180910390fd5b836001600160a01b038116610d7e5760405163cdf9642b60e01b815260040160405180910390fd5b8380600003610da0576040516372357e6560e01b815260040160405180910390fd5b60015433906001600160a01b03168114610de4576001546040516362fcbd2f60e11b81526001600160a01b03808416600483015290911660248201526044016108fc565b6000888888604051602001610dfb93929190611b51565b60408051808303601f190181528282528051602091820120600081815260038084528482206101008701865280546001600160a01b0390811688526001820154811695880195909552600281015494851687870152600160a01b90940460ff1660608701528451610140810195869052929650909493608085019291840190600a9082845b815481526020019060010190808311610e80575050509183525050600d82015460ff808216602084015261010090910416151560408083019190915280518082019182905260609092019190600e840190600290826000855b825461010083900a900460ff161515815260206001928301818104948501949093039092029101808411610ed95790505050509190925250508151919250506001600160a01b0316610f41576040516312e5007360e21b8152600481018390526024016108fc565b600081608001518260a0015160ff16600a8110610f6057610f60611b3b565b602002015190508715610fa95760408051808201825260018082526020808301919091526000868152600390915291909120610fa391600e909101906002611869565b50610fc6565b81516040830151610fc6916001600160a01b039091169083611603565b6040805184815289151560208201527fb53f91094089f75cca241f8acf94f3eb560fcad9a9e662b992bba81721985e26910160405180910390a15050505050505050505050565b816001600160a01b0381166110355760405163cdf9642b60e01b815260040160405180910390fd5b8180600003611057576040516372357e6560e01b815260040160405180910390fd5b600084338560405160200161106e93929190611b51565b60408051808303601f190181528282528051602091820120600081815260038084528482206101008701865280546001600160a01b0390811688526001820154811695880195909552600281015494851687870152600160a01b90940460ff1660608701528451610140810195869052929650909493608085019291840190600a9082845b8154815260200190600101908083116110f3575050509183525050600d82015460ff808216602084015261010090910416151560408083019190915280518082019182905260609092019190600e840190600290826000855b825461010083900a900460ff16151581526020600192830181810494850194909303909202910180841161114c5790505050509190925250508151919250506001600160a01b03166111b4576040516312e5007360e21b8152600481018390526024016108fc565b6000828152600360205260409020600e01805461ff00191661010017905560a08101517f15d45509ebac4dadbaec4ab1e5736bd8295d08223ad9531b4483bd57f39b8c09908390611206906001611c90565b6040805192835260ff909116602083015201610d1e565b816001600160a01b0381166112455760405163cdf9642b60e01b815260040160405180910390fd5b8180600003611267576040516372357e6560e01b815260040160405180910390fd5b600084338560405160200161127e93929190611b51565b60408051808303601f190181528282528051602091820120600081815260038084528482206101008701865280546001600160a01b0390811688526001820154811695880195909552600281015494851687870152600160a01b90940460ff1660608701528451610140810195869052929650909493608085019291840190600a9082845b815481526020019060010190808311611303575050509183525050600d82015460ff808216602084015261010090910416151560408083019190915280518082019182905260609092019190600e840190600290826000855b825461010083900a900460ff16151581526020600192830181810494850194909303909202910180841161135c57505050929093525050506020820151919250506001600160a01b031633146113e3576020810151604051637328c10760e11b8152600481018490523360248201526001600160a01b0390911660448201526064016108fc565b60e0810151511515600114801590611406575060e0810151602001511515600114155b156114365760a0810151604051632aca77e760e01b81526004810184905260ff90911660248201526044016108fc565b600081608001518260a0015160ff16600a811061145557611455611b3b565b60200201516001549091506000906127109061147c90600160a01b900461ffff1684611ca9565b6114869190611cc0565b6000858152600360205260408120600d01805492935060ff90921691906114ac83611ce2565b825460ff9182166101009390930a9283029190920219909116179055506000848152600360208181526040808420600d8101805461ff001916905581518083019092528482528183018590529388905291905261150e91600e01906002611869565b506115323361151d8385611ba4565b60408601516001600160a01b03169190611603565b6001546040840151611551916001600160a01b03918216911683611603565b60a08301516040805186815260ff909216602083015281018390527f81d7f21ed7dcdc1fdbe413734eabf500a9c538ed4c7db21febcb28358b2214b79060600160405180910390a15050505050505050565b6115fd84856001600160a01b03166323b872dd8686866040516024016115cb93929190611b51565b604051602081830303815290604052915060e01b6020820180516001600160e01b038381831617835250505050611639565b50505050565b6040516001600160a01b0383811660248301526044820183905261163491859182169063a9059cbb906064016115cb565b505050565b600061164e6001600160a01b0384168361169c565b905080516000141580156116735750808060200190518101906116719190611d01565b155b1561163457604051635274afe760e01b81526001600160a01b03841660048201526024016108fc565b60606116aa838360006116b3565b90505b92915050565b6060814710156116d85760405163cd78605960e01b81523060048201526024016108fc565b600080856001600160a01b031684866040516116f49190611d1e565b60006040518083038185875af1925050503d8060008114611731576040519150601f19603f3d011682016040523d82523d6000602084013e611736565b606091505b5091509150611746868383611752565b925050505b9392505050565b60608261176757611762826117ae565b61174b565b815115801561177e57506001600160a01b0384163b155b156117a757604051639996b31560e01b81526001600160a01b03851660048201526024016108fc565b508061174b565b8051156117be5780518082602001fd5b604051630a12f52160e11b815260040160405180910390fd5b50565b604080516101008101825260008082526020820181905291810182905260608101919091526080810161180b6118f6565b81526000602082018190526040820152606001611826611915565b905290565b82600a8101928215611859579160200282015b8281111561185957825182559160200191906001019061183e565b50611865929150611933565b5090565b6001830191839082156118595791602002820160005b838211156118bc57835183826101000a81548160ff021916908315150217905550926020019260010160208160000104928301926001030261187f565b80156118e95782816101000a81549060ff02191690556001016020816000010492830192600103026118bc565b5050611865929150611933565b604051806101400160405280600a906020820280368337509192915050565b60405180604001604052806002906020820280368337509192915050565b5b808211156118655760008155600101611934565b60006020828403121561195a57600080fd5b5035919050565b8060005b600a8110156115fd578151845260209384019390910190600101611965565b8060005b60028110156115fd5781511515845260209384019390910190600101611988565b81516001600160a01b039081168252602080840151821690830152604080840151909116908201526060808301516102408301916119eb9084018260ff169052565b5060808301516119fe6080840182611961565b5060a083015160ff166101c083015260c083015115156101e083015260e0830151611a2d610200840182611984565b5092915050565b80356001600160a01b0381168114611a4b57600080fd5b919050565b6000806000806101a0808688031215611a6857600080fd5b611a7186611a34565b9450611a7f60208701611a34565b9350604086013560ff81168114611a9557600080fd5b9250858101871015611aa657600080fd5b509295919450926060019150565b60008060408385031215611ac757600080fd5b611ad083611a34565b946020939093013593505050565b80151581146117d757600080fd5b60008060008060808587031215611b0257600080fd5b611b0b85611a34565b9350611b1960208601611a34565b9250604085013591506060850135611b3081611ade565b939692955090935050565b634e487b7160e01b600052603260045260246000fd5b6001600160a01b039384168152919092166020820152604081019190915260600190565b634e487b7160e01b600052601160045260246000fd5b600060018201611b9d57611b9d611b75565b5060010190565b818103818111156116ad576116ad611b75565b60008282825b6002811015611bde5781511515835260209283019290910190600101611bbd565b50505060408301905092915050565b81516001600160a01b0390811682526020808401518216818401526040808501519092169183019190915260608084015160ff16908301526080808401516000929091839085015b600a821015611c54578351815292820192600191909101908201611c35565b5050505060a083015160ff166101c083015260c083015115156101e0830152611c85610200830160e0850151611bb7565b505061024001919050565b60ff81811683821601908111156116ad576116ad611b75565b80820281158282048414176116ad576116ad611b75565b600082611cdd57634e487b7160e01b600052601260045260246000fd5b500490565b600060ff821660ff8103611cf857611cf8611b75565b60010192915050565b600060208284031215611d1357600080fd5b815161174b81611ade565b6000825160005b81811015611d3f5760208186018101518583015201611d25565b50600092019182525091905056fea264697066735822122014d0ddba332fa03fbd8d5847d07d4c3cf46a0f3987274888403a071d6d7a475b64736f6c63430008180033",
    "linkReferences": {}
  },
  "methodIdentifiers": {
    "FEE_PRECISION()": "e63a391f",
    "MAX_MILESTONES()": "4c05abeb",
    "admin()": "f851a440",
    "collectFundsFromMilestone(address,uint256)": "e1cccbaa",
    "createJob(address,address,uint8,uint256[10])": "2c66c955",
    "fee()": "ddca3f43",
    "fundMilestone(address,uint256)": "4aad8920",
    "getJobDetails(bytes32)": "11a33bda",
    "jobCount()": "4c5d8a0f",
    "jobs(bytes32)": "38ed7cfc",
    "markMilestoneAsDoneByClient(address,uint256)": "b96cb820",
    "markMilestoneAsDoneBySupplier(address,uint256)": "d4b136aa",
    "resolveConflict(address,address,uint256,bool)": "cae654cd",
    "weth()": "3fc8cef3"
  },
  "id": 33
}